S01700004169725F436F6E646974696F6E65722E7372656314
S11300000C9446000C9463000C9463000C946300FD
S11300100C9463000C9463000C9463000C946300D0
S11300200C9463000C943C0E0C9463000C946C0EC2
S11300300C9463000C9463000C9463000C946300B0
S11300400C94E0080C9463000C9463000C9463001B
S11300500C9463006B0A760A810A8F0B8C0A8F0B4F
S1130060970AA20AAD0AB80ACE0AD90AE40A910B81
S1130070EF0A910BFA0A050B100B1B0B310B3C0B0F
S1130080470B520B5D0B680B730B7E0B11241FBEC9
S1130090CFE5D8E0DEBFCDBF10E0A0E6B0E0E2E3FC
S11300A0F2E202C005900D92AC3FB107D9F721E00E
S11300B0ACEFB0E001C01D92A235B207E1F70E9497
S11300C003080C9417110C940000882371F0982FE6
S11300D020E008C03DEC939F912D112496959695B0
S11300E096952F5F9111F6CF01C021E0FB01E20F3D
S11300F0F11D108281111CC02150FB01E20FF11D82
S113010080E3808308952150FB01E20FF11D9DECF3
S1130110899F912D1124969596959695492F440F74
S1130120342F330F330F340F831B805D8083892F6B
S1130130882311F02111E7CF0895CF93C82F10928F
S1130140FD00E7E0F1E0608180850E94EA0780918C
S1130150FD00C817E0F7809107010E94F507CF91D1
S113016008958091FD008F5F8093FD00E7E0F1E04A
S11301706281738180810E94FC070895EF92FF924F
S11301800F931F93CF93DF93E7E0F1E0D1E0D083A7
S1130190118288E090EF9383828381EB90E09783D0
S11301A08683C7E0C087CF010E94C507E1E0F1E084
S11301B0C1831082E3E0F1E0D1831082BF0181E0CA
S11301C091E00E947D07E8E2F1E01082C2E0C18381
S11301D01282C383D483C583C683C78313E0108785
S11301E0C18B6894EE24E2F8E28AC38B0F2EF5E00B
S11301F0FF2EF02DF48AC58B06E0068BCF010E94FA
S11302007C05E4E4F1E01086E1861286F386148628
S11302100587108211821282D3831482C5831682C9
S11302201783CF010E943A03EFEFF0E0D0831182ED
S1130230CF010E940003DF91CF911F910F91FF9096
S1130240EF90089588E291E00E94F60540E060E0B6
S113025088E291E00E9400066DE670E088E291E099
S11302600E941A0782E00E949D0088E291E00E94A9
S1130270F60540E060E088E291E00E94000665E750
S113028070E088E291E00E941A0740E061E088E2B1
S113029091E00E9400066FEC70E088E291E00E9419
S11302A01A0782E00E949D0084E18093FC0081E0B3
S11302B08093FE0008951F93CF93DF9300D000D066
S11302C01F92CDB7DEB78CE790E09A83898380E2F2
S11302D090E09C838B831D8288E291E00E94F60566
S11302E040E060E088E291E00E94000665E870E08A
S11302F088E291E00E941A0781E00E949D0088E252
S113030091E00E94F60540E060E088E291E00E94FE
S1130310000666E970E088E291E00E941A074AE06C
S113032060E088E291E00E9400066DE970E088E2F6
S113033091E00E941A0713E10FC04DEE410F61E0F6
S113034088E291E00E940006BE016F5F7F4F88E261
S113035091E00E941A071F5F8091FC00811768F7E3
S11303606FE371E08091FC000E94650047E060E06B
S113037088E291E00E9400066FE371E088E291E078
S11303800E941A07BE016B5F7F4F84E491E00E94D4
S113039083038D818133B1F44091FC00433200F733
S11303A081E0840F8093FC00425161E088E291E097
S11303B00E940006BE016F5F7F4F88E291E00E94B9
S11303C01A07CECF8233B1F44091FC00433140F29E
S11303D08FEF840F8093FC00435161E088E291E049
S11303E00E940006BE016D5F7F4F88E291E00E948B
S11303F01A07B6CF833309F0B3CF82E08093FE00AF
S11304000F900F900F900F900F90DF91CF911F914D
S11304100895CF93DF931F92CDB7DEB7198288E298
S113042091E00E94F60540E060E088E291E00E94DD
S1130430000664EA70E088E291E00E941A07B9C0FD
S113044040E650E063E071E081E091E00E948E07B5
S113045041E061E088E291E00E9400066091600062
S11304607091610080916200909163000E94C30FBB
S1130470862F6FE371E00E9465006FE371E088E20C
S113048091E00E941A076091FC0070E080E090E027
S11304900E94F40F2091600030916100409162004D
S11304A0509163000E944C0F882344F463E088E277
S11304B091E00E9439070E941C030EC040E061E0F5
S11304C088E291E00E94000662EB70E088E291E02D
S11304D00E941A070E942B03BE016F5F7F4F84E4C2
S11304E091E00E9483038981853331F08E3409F4CD
S11304F060C0843379F528C00E942B0384E1809383
S1130500FC0088E291E00E94F60540E060E088E2A9
S113051091E00E94000664EB70E088E291E00E94A2
S11305201A0740E061E088E291E00E94000662EC74
S113053070E088E291E00E941A0782E00E949D0028
S113054081E08093FE0035C00E942B0381E08093FC
S1130550FE002FC088E291E00E94F60540E060E0D2
S113056088E291E00E94000662ED70E088E291E08A
S11305700E941A0740E061E088E291E00E940006D0
S113058063EE70E088E291E00E941A0782E00E9424
S11305909D0088E291E00E94F60540E060E088E278
S11305A091E00E94000664EA70E088E291E00E9413
S11305B01A078091FE00823009F442CF0F90DF9138
S11305C0CF9108950E94BE00E7E0F1E0608180854C
S11305D00E94EA0702C00E9422018091FE0081115C
S11305E003C0F9CF0E945B018091FE008130D1F3FA
S11305F002C00E9409028091FE008230D1F3EDCF47
S1130600CF93DF93009791F0EC01698141E08881F9
S11306100E94320981110CC08881E0E1F1E08083FD
S1130620898181831092640080E003C082E001C06C
S113063081E0DF91CF91089580916400813049F089
S1130640E0E1F1E041E0618180810E946C0980E099
S1130650089581E0089580916400813049F0E0E1DB
S1130660F1E040E0618180810E946C0980E008959E
S113067081E00895DF92EF92FF920F931F93CF933F
S1130680DF930097B9F18C01F12C11C0CF2DD0E08C
S1130690CC0FDD1FC00FD11F40E0698188810E940B
S11306A0320941E0698188810E946C09F39483E0F6
S11306B08F1560F7D12C19C0CD2DD0E07E01EE0C42
S11306C0FF1CE00EF11E2496CC0FDD1FC00FD11FBE
S11306D041E0F701618588810E94320941E0F70118
S11306E0618588810E946C09D394F2E0FD1520F79E
S11306F080E001C081E0DF91CF911F910F91FF90C5
S1130700EF90DF9008957F928F929F92AF92BF9265
S1130710CF92DF92EF92FF920F931F93CF93DF93C9
S11307201F92CDB7DEB78C015B01892B09F482C01F
S1130730672B09F482C0F12C14C08F2D90E0DC01EA
S1130740AA0FBB1FA00FB11FFC013496EE0FFF1FB1
S1130750E00FF11F41E019966C9180810E946C09B1
S1130760F39482E08F1548F7712C812C5BC0E82C40
S1130770F12CD701AA0FBB1FA00FB11FF7013496AC
S1130780EE0FFF1FE00FF11F40E019966C9180817E
S11307900E946C09912C31C0C92CD12CF601EE0FAA
S11307A0FF1FE00FF11FAE014F5F5F4F618180813A
S11307B00E94E709898181111FC00CC0F601EE0F68
S11307C0FF1FE00FF11FAE014F5F5F4F618180811A
S11307D00E94E7098981882389F3F601EE0FFF1F40
S11307E0EC0DFD1DE151FF4FEE0DFF1D8081F50164
S11307F080837724739404C09394F3E0F91560F62E
S1130800D701AA0FBB1FA00FB11FF7013496EE0F3B
S1130810FF1FE00FF11F41E019966C9180810E9447
S11308206C09839482E0881558F091E079129FCF87
S113083080E007C0712C82E004C0712C82E001C00A
S113084080E0E1E07E1621F08EE4F501808383E010
S11308500F90DF91CF911F910F91FF90EF90DF9058
S1130860CF90BF90AF909F908F907F900895CF933B
S1130870DF9300D000D0CDB7DEB719821A821B8275
S11308801C820BC089819A81AB81BC810196A11D18
S1130890B11D89839A83AB83BC8389819A81AB819F
S11308A0BC8188389341A105B10560F30F900F9086
S11308B00F900F90DF91CF910895CF93DF93EC01C8
S11308C041E06E898D890E946C090E94370440E0E2
S11308D06E898D890E946C09DF91CF910895FF92F2
S11308E00F931F93CF93DF93EC01062F40E06E89A3
S11308F08D890E946C0940E06A8989890E946C098B
S113090040E06C898B890E946C098881882309F4F2
S113091041C09BC081E090E0012E02C0880F991F66
S11309200A94E2F7202F30E082239323012E02C0A1
S1130930959587950A94E2F70197A9F48F2D0F2CCA
S1130940000C990BDC011196AA0FBB1FAC0FBD1F45
S1130950880F991FFE01E80FF91F41E06C91818116
S11309600E946C0914C08F2D0F2C000C990BDC0114
S11309701196AA0FBB1FAC0FBD1F880F991FFE0154
S1130980E80FF91F40E06C9181810E946C091150BD
S1130990FA9405C00F2EF3E0FF2EF02D17E0FF2090
S11309A00CF0B8CFCE010E945D040E9437040F2ED4
S11309B0F3E0FF2EF02D3FC081E090E0012E02C055
S11309C0880F991F0A94E2F7202F30E082239323A3
S11309D0012E02C0959587950A94E2F70197A9F430
S11309E08F2D0F2C000C990BDC011196AA0FBB1F45
S11309F0AC0FBD1F880F991FFE01E80FF91F41E0DE
S1130A006C9181810E946C0914C08F2D0F2C000CF5
S1130A10990BDC011196AA0FBB1FAC0FBD1F880FE9
S1130A20991FFE01E80FF91F40E06C9181810E943B
S1130A306C091150FA94FF200CF0BECFCE010E9435
S1130A405D040E943704C0E04EC08130F1F1C1E082
S1130A504AC081E090E00F2C02C0880F991F0A94CD
S1130A60E2F7202F30E0822393230F2C02C09595C8
S1130A7087950A94E2F7019799F4812F90E0DC01BD
S1130A801196AA0FBB1FAC0FBD1F880F991FFE0143
S1130A90E80FF91F41E06C9181810E946C0912C03A
S1130AA0812F90E0DC011196AA0FBB1FAC0FBD1F74
S1130AB0880F991FFE01E80FF91F40E06C918181B6
S1130AC00E946C09FA941F5F05C010E00F2EF7E036
S1130AD0FF2EF02D183008F4BCCFCE010E945D0427
S1130AE00E943704C0E00E9437048C2FDF91CF911D
S1130AF01F910F91FF9008950F931F93CF93DF934E
S1130B00EC0141E06A8989890E943209182F41E089
S1130B106C898B890E943209182B41E06E898D897A
S1130B200E943209182B88818823B1F02DC0202F10
S1130B3030E0D9011196AA0FBB1FAC0FBD1F220FC5
S1130B40331FFE01E20FF31F41E06C9181810E948B
S1130B503209182B0F5F01C000E0043040F362E05B
S1130B60CE010E946F0468E2CE010E946F046CE023
S1130B70CE010E946F0466E0CE010E946F0461E022
S1130B80CE010E946F042CC08130B9F011E028C05E
S1130B90802F90E0DC011196AA0FBB1FAC0FBD1F84
S1130BA0880F991FFE01E80FF91F41E06C918181C4
S1130BB00E943209182B0F5F01C000E0083040F397
S1130BC068E3CE010E946F046CE0CE010E946F04C2
S1130BD066E0CE010E946F0461E0CE010E946F04C2
S1130BE0812FDF91CF911F910F910895CF9361E0F1
S1130BF00E946F04C82F0E9437048C2FCF91089550
S1130C00611106C060E8640F0E946F0480E00895DB
S1130C10613031F460EC640F0E946F0480E0089549
S1130C2081E00895FF920F931F93CF93DF93EC011C
S1130C30062F40E06E898D890E946C0941E06A8923
S1130C4089890E946C0940E06C898B890E946C0937
S1130C508881882309F441C09AC081E090E0012E84
S1130C6002C0880F991F0A94E2F7202F30E08223F4
S1130C709323012E02C0959587950A94E2F7019774
S1130C80A9F48F2D0F2C000C990BDC011196AA0FDF
S1130C90BB1FAC0FBD1F880F991FFE01E80FF91F82
S1130CA041E06C9181810E946C0914C08F2D0F2C3E
S1130CB0000C990BDC011196AA0FBB1FAC0FBD1FD2
S1130CC0880F991FFE01E80FF91F40E06C918181A4
S1130CD00E946C091150FA9405C00F2EF3E0FF2E08
S1130CE0F02D17E0FF200CF0B8CFCE010E945D0478
S1130CF00E9437040F2EF3E0FF2EF02D3FC081E059
S1130D0090E0012E02C0880F991F0A94E2F7202F69
S1130D1030E082239323012E02C0959587950A948F
S1130D20E2F70197A9F48F2D0F2C000C990BDC012D
S1130D301196AA0FBB1FAC0FBD1F880F991FFE0190
S1130D40E80FF91F41E06C9181810E946C0914C085
S1130D508F2D0F2C000C990BDC011196AA0FBB1FD1
S1130D60AC0FBD1F880F991FFE01E80FF91F40E06B
S1130D706C9181810E946C091150FA94FF200CF04F
S1130D80BECFCE010E945D040E9437044DC0813065
S1130D9009F04AC03CC081E090E00F2C02C0880FEB
S1130DA0991F0A94E2F7202F30E0822393230F2C1B
S1130DB002C0959587950A94E2F7019799F4812FDB
S1130DC090E0DC011196AA0FBB1FAC0FBD1F880F6A
S1130DD0991FFE01E80FF91F41E06C9181810E9487
S1130DE06C0912C0812F90E0DC011196AA0FBB1F81
S1130DF0AC0FBD1F880F991FFE01E80FF91F40E0DB
S1130E006C9181810E946C09FA941F5F05C010E007
S1130E100F2EF7E0FF2EF02D183008F4BCCFCE01D2
S1130E200E945D040E943704DF91CF911F910F91BE
S1130E30FF900895EF92FF920F931F93CF93611544
S1130E40710581F08B017C01C0E004C0C7010E94E0
S1130E501206CF5FF801EC0FF11D60816111F6CF2E
S1130E6080E001C082E0CF911F910F91FF90EF903D
S1130E700895EF92FF921F93CF93DF93CDB7DEB720
S1130E8028970FB6F894DEBF0FBECDBF7C0188E073
S1130E90E5E6F0E0DE01119601900D928A95E1F706
S1130EA070E0685F7F4F660F660F660FC7010E9490
S1130EB06F0410E00BC0E1E0F0E0EC0FFD1FE10F68
S1130EC0F11D6081C7010E9412061F5F183098F35C
S1130ED060ECC7010E946F0463E0C7010E94120620
S1130EE080E028960FB6F894DEBF0FBECDBFDF9129
S1130EF0CF911F91FF90EF900895CF93DF930097C8
S1130F0049F0EC01CB010E944208CE010E94810805
S1130F1080E001C081E0DF91CF9108950F931F938A
S1130F20CF93DF9300D000D0CDB7DEB719821A82F9
S1130F301B821C820097E9F061157105E1F08A01BA
S1130F409B01BC01AE014F5F5F4FC9010E94920833
S1130F502AE037ED43E25CE369817A818B819C81ED
S1130F600E94510FF801608371838283938380E030
S1130F7003C081E001C081E00F900F900F900F90AB
S1130F80DF91CF911F910F9108951F93CF93DF931A
S1130F90FC0120812330C8F4EC01E2E1F1E020837C
S1130FA0898182838A819B81978386838C819D81B9
S1130FB091878087CF010E94B90E182F68818E8196
S1130FC09F810E949C0E812B01C081E0DF91CF9113
S1130FD01F9108958A3028F4633028F40E94FA0E91
S1130FE0089581E0089581E00895833018F40E9403
S1130FF01F0F089581E00895833018F40E94090FAB
S1131000089581E008950E94E20280E090E008954E
S1131010CF93DF93DC01FB0196B1977F96B90D90D6
S1131020BC91A02D13968C91811108C024B185B177
S113103090E0982F8827BC01622B0DC024B1229523
S113104026952695237085B190E0880F991F880F07
S1131050991FBC01622BC081D18180E090E00E9485
S1131060F20F2091200130912101409122015091F1
S113107023010E94A410688379838A839B83DF9170
S1131080CF910895FC01892BD1F180819281292F80
S113109030E0220F331F220F331F220F331F282B60
S11310A0206826B9818140E4849F900111249281B3
S11310B040E2949FC0011124822B87B981E090E023
S11310C062E070E003C0660F771F01968A309105D5
S11310D0D4F380E090E00E94F20F9B01AC0160E049
S11310E070E080EA90E40E94510F609320017093B5
S11310F02101809322019093230180E0089583E0ED
S11311000895009759F0FC012081211109C040E0A5
S11311106181822F0E94320980E0089583E008955E
S113112082E00895CF93DF93FC016115710529F4E2
S11311304115510511F4892BE9F1DB019C919111C1
S11311403BC03699FECF87B1DB0111969C91807E1E
S1131150892B87B986B1806486B9349BFECF83819D
S1131160811107C084B165B170E0762F6627682BC2
S11311700CC084B1829586958695837065B170E0C4
S1131180660F771F660F771F682BEA0180E090E0F7
S11311900E94F20F209120013091210140912201FF
S11311A0509123010E94A410688379838A839B83CE
S11311B080E003C083E001C082E0DF91CF91089515
S11311C01F920F920FB60F9211242F933F934F93B8
S11311D05F936F937F938F939F93AF93BF93EF939B
S11311E0FF93CF93DF9300D000D0CDB7DEB7E0916B
S11311F01E01F0911F01309731F0BE016F5F7F4FE8
S1131200CE0103960995BE016F5F7F4FCE01039611
S11312100E940808E0911C01F0911D01309719F01B
S113122089819A81099510921F0110921E011092D2
S11312301D0110921C010F900F900F900F90DF91E1
S1131240CF91FF91EF91BF91AF919F918F917F913A
S11312506F915F914F913F912F910F900FBE0F901F
S11312601F9018956830A0F581110BC08AB350E027
S113127002C0440F551F6A95E2F7482B4ABB80E031
S11312800895813059F487B350E002C0440F551FCC
S11312906A95E2F7482B47BB80E00895823059F401
S11312A084B350E002C0440F551F6A95E2F7482BFF
S11312B044BB80E00895833069F481B350E002C0F8
S11312C0440F551F6A95E2F7482B41BB80E008950F
S11312D081E0089582E00895683008F074C08111B7
S11312E01BC0413061F42BB381E090E002C0880F51
S11312F0991F6A95E2F7822B8BBB80E008952BB38C
S113130081E090E002C0880F991F6A95E2F780950A
S113131082238BBB80E008958130D9F4413061F49D
S113132028B381E090E002C0880F991F6A95E2F724
S1131330822B88BB80E0089528B381E090E002C04E
S1131340880F991F6A95E2F78095822388BB80E015
S113135008958230D9F4413061F425B381E090E0FE
S113136002C0880F991F6A95E2F7822B85BB80E043
S1131370089525B381E090E002C0880F991F6A9513
S1131380E2F78095822385BB80E008958330E9F4F9
S1131390413061F422B381E090E002C0880F991FCC
S11313A06A95E2F7822B82BB80E0089522B381E044
S11313B090E002C0880F991F6A95E2F78095822316
S11313C082BB80E0089581E0089582E0089568304A
S11313D008F064C0811117C079B381E090E09C01EA
S11313E0062E02C0220F331F0A94E2F7872F90E0E3
S11313F08223932302C0959587956A95E2F7FA01B3
S1131400808380E008958130B9F476B381E090E080
S11314109C01062E02C0220F331F0A94E2F7872F85
S113142090E08223932302C0959587956A95E2F70D
S1131430FA01808380E008958230B9F473B381E0C7
S113144090E09C01062E02C0220F331F0A94E2F79B
S1131450872F90E08223932302C0959587956A9500
S1131460E2F7FA01808380E008958330C9F470B311
S113147081E090E09C01062E02C0220F331F0A94E3
S1131480E2F7872F90E08223932302C095958795F6
S11314906A95E2F7FA01808380E0089581E0089577
S11314A082E00895833008F034C16A3008F033C113
S11314B0813009F468C020F0823009F4C7C02DC11E
S11314C0862F90E08A30910508F029C1FC01E65D81
S11314D0FF4F0C94111183B78E7F83BF83B78D7F29
S11314E083BF83B78B7F83BF80E0089583B7816018
S11314F083BF83B78D7F83BF83B78B7F83BF80E038
S1131500089583B78E7F83BF83B7826083BF83B719
S11315108B7F83BF80E0089583B7816083BF83B7E7
S1131520826083BF83B78B7F83BF80E0089583B7D6
S11315308E7F83BF83B78D7F83BF83B7846083BF70
S113154080E0089583B7816083BF83B78D7F83BFB5
S113155083B7846083BF80E0089583B78E7F83BFA1
S113156083B7826083BF83B7846083BF80E00895BC
S113157083B7816083BF83B7826083BF83B784608E
S113158083BF80E00895862F90E08A30910508F0AB
S1131590C8C0FC01EC5CFF4F0C9411118EB58E7F1A
S11315A08EBD8EB58D7F8EBD8EB58B7F8EBD80E05A
S11315B008958EB581608EBD8EB58D7F8EBD8EB53E
S11315C08B7F8EBD80E008958EB58E7F8EBD8EB5E7
S11315D082608EBD8EB58B7F8EBD80E008958EB502
S11315E081608EBD8EB582608EBD8EB58B7F8EBDC3
S11315F080E008958EB58E7F8EBD8EB58D7F8EBDB5
S11316008EB584608EBD80E008958EB581608EBDF8
S11316108EB58D7F8EBD8EB584608EBD80E00895BD
S11316208EB58E7F8EBD8EB582608EBD8EB5846084
S11316308EBD80E008958EB581608EBD8EB58260CA
S11316408EBD8EB584608EBD80E00895862F90E0B7
S11316508830910508F067C0FC01E25CFF4F0C94F0
S1131660111185B58B7F85BD85B58D7F85BD85B50C
S11316708E7F85BD80E0089585B5846085BD85B580
S11316808D7F85BD85B58E7F85BD80E0089585B548
S11316908B7F85BD85B5826085BD85B58E7F85BD13
S11316A080E0089585B5846085BD85B5826085BD7B
S11316B085B58E7F85BD80E0089585B58B7F85BD1A
S11316C085B58D7F85BD85B5816085BD80E0089534
S11316D085B5846085BD85B58D7F85BD85B5816003
S11316E085BD80E0089585B58B7F85BD85B5826015
S11316F085BD85B5816085BD80E0089585B584602C
S113170085BD85B5826085BD85B5816085BD80E078
S1131710089581E0089581E0089581E0089581E0CD
S1131720089581E0089581E00895FC01892B09F46E
S113173093C28081833008F091C29281943008F082
S11317408FC22381243008F08DC2813009F4ADC0EA
S113175020F0823009F4D8C187C29130D9F030F03A
S1131760923009F469C09330F1F180C283B7806884
S113177083BF83B78F7B83BF83B7877F83BF83B7E1
S11317808F7E83BF83B78F7D83BF89B7816089BF15
S113179080E0089583B7806483BF83B7877F83BF66
S11317A08581811108C083B78F7E83BF83B78F7D06
S11317B083BF80E015C0823041F483B78F7E83BF3E
S11317C083B7806283BF80E00BC0833041F483B76A
S11317D0806183BF83B7806283BF80E001C081E002
S11317E090859CBF089583B7806483BF83B7886066
S11317F083BF8481811108C083B78F7E83BF83B781
S11318008F7D83BF80E015C0823041F483B78F7E23
S113181083BF83B7806283BF80E00BC0833041F411
S113182083B7806183BF83B7806283BF80E001C0D8
S113183081E090859CBF089583B7806883BF83B798
S11318408F7B83BF83B7886083BF8381813071F0CE
S113185028F0823099F08330C9F020C083B78F7E9E
S113186083BF83B78F7D83BF80E019C083B7806156
S113187083BF83B78F7D83BF80E011C083B78F7E22
S113188083BF83B7806283BF80E009C083B7806170
S113189083BF83B7806283BF80E001C081E090850D
S11318A09CBF99B7926099BF0895913059F138F06F
S11318B0923009F4CDC0933009F477C0D9C18FB503
S11318C088608FBD8FB584608FBD8FB58E7F8FBDCF
S11318D08FB58D7F8FBD8EB58F7E8EBD8EB5877F84
S11318E08EBD8FB58F7B8FBD8FB58F778FBD8FB535
S11318F08F7E8FBD8FB58F7D8FBD89B7846089BF83
S113190080E008958FB581608FBD8FB58D7F8FBDC9
S11319108EB58F7E8EBD8EB5877F8EBD85818130DD
S1131920A1F028F08230F9F0833059F138C08FB536
S11319308F7B8FBD8FB58F778FBD8FB58F7E8FBD1A
S11319408FB58F7D8FBD80E02BC08FB580648FBD38
S11319508FB58F778FBD8FB580618FBD8FB58F7D2C
S11319608FBD80E01DC08FB58F7B8FBD8FB5806824
S11319708FBD8FB58F7E8FBD8FB580628FBD80E0A8
S11319800FC08FB580648FBD8FB580688FBD8FB554
S113199080618FBD8FB580628FBD80E001C081E022
S11319A090859ABD91859BBD08958FB581608FBD4B
S11319B08FB58D7F8FBD8EB580618EBD8EB5877FCF
S11319C08EBD848181110EC08FB58F7B8FBD8FB585
S11319D08F778FBD8FB58F7E8FBD8FB58F7D8FBD78
S11319E080E031C0813071F48FB580648FBD8FB5D4
S11319F08F778FBD8FB580618FBD8FB58F7D8FBD84
S1131A0080E021C0823071F48FB58F7B8FBD8FB59C
S1131A1080688FBD8FB58F7E8FBD8FB580628FBD7F
S1131A2080E011C0833071F48FB580648FBD8FB5B1
S1131A3080688FBD8FB580618FBD8FB580628FBD8B
S1131A4080E001C081E090859ABD91859BBD089599
S1131A508FB588608FBD8FB584608FBD8FB58E7F45
S1131A608FBD8FB58D7F8FBD8EB580618EBD8EB5D8
S1131A70877F8EBD838181110EC08FB58F7B8FBD13
S1131A808FB58F778FBD8FB58F7E8FBD8FB58F7DCF
S1131A908FBD80E031C0813071F48FB580648FBD1B
S1131AA08FB58F778FBD8FB580618FBD8FB58F7DDB
S1131AB08FBD80E021C0823071F48FB58F7B8FBDE4
S1131AC08FB580688FBD8FB58F7E8FBD8FB58062D7
S1131AD08FBD80E011C0833071F48FB580648FBDF9
S1131AE08FB580688FBD8FB580618FBD8FB58062E3
S1131AF08FBD80E001C081E090859ABD91859BBD3A
S1131B0099B7906199BF08959130D9F030F092302F
S1131B1009F469C09330F1F1ADC085B5806885BD25
S1131B2085B58F7B85BD85B5877F85BD85B58F7E62
S1131B3085BD85B58F7D85BD89B7806489BF80E00B
S1131B40089585B5806485BD85B5877F85BD85810C
S1131B50811108C085B58F7E85BD85B58F7D85BD16
S1131B6080E015C0823041F485B58F7E85BD85B592
S1131B70806285BD80E00BC0833041F485B580610F
S1131B8085BD85B5806285BD80E001C081E090851A
S1131B9093BD089585B5806485BD85B5886085BD90
S1131BA08481811108C085B58F7E85BD85B58F7D03
S1131BB085BD80E015C0823041F485B58F7E85BD3A
S1131BC085B5806285BD80E00BC0833041F485B566
S1131BD0806185BD85B5806285BD80E001C081E0FE
S1131BE0908593BD089585B5806885BD85B58F7B47
S1131BF085BD85B5886085BD8381811108C085B5A3
S1131C008F7E85BD85B58F7D85BD80E01FC0813009
S1131C1041F485B5806185BD85B58F7D85BD80E046
S1131C2015C0823041F485B58F7E85BD85B580624F
S1131C3085BD80E00BC0833041F485B5806185BDEE
S1131C4085B5806285BD80E001C081E0908593BD4B
S1131C5099B7906899BF089581E0089581E0089547
S1131C6081E0089581E0089581E0089581E0089578
S1131C7081E0089581E008951F920F920FB60F92AC
S1131C8011242F933F934F935F936F937F938F937D
S1131C909F93AF93BF93EF93FF938091240190910F
S1131CA02501892B41F088B78B7F88BFE0912401FF
S1131CB0F09125010995FF91EF91BF91AF919F910B
S1131CC08F917F916F915F914F913F912F910F90E1
S1131CD00FBE0F901F9018951F920F920FB60F9280
S1131CE011242F933F934F935F936F937F938F931D
S1131CF09F93AF93BF93EF93FF93809126019091AD
S1131D002701892B41F088B78E7F88BFE091260197
S1131D10F09127010995FF91EF91BF91AF919F91A8
S1131D208F917F916F915F914F913F912F910F9080
S1131D300FBE0F901F9018956330A8F40097A9F078
S1131D40613059F020F0623091F081E00895909371
S1131D5027018093260180E00895909325018093C4
S1131D60240180E0089581E0089581E0089580E0F1
S1131D700895009799F1FC012081233088F5328180
S1131D80343080F53381343078F53481343070F573
S1131D90213069F018F02230C1F02AC012BE13BEFF
S1131DA01CBEFC01268122BF0E94950B08951CBC19
S1131DB01DBC1FBC1EBC1BBC1ABCFC012681378188
S1131DC03DBD2CBD0E94950B089514BC15BC13BCDD
S1131DD0FC01268124BD0E94950B089581E008959D
S1131DE081E0089581E0089581E0089581E00895F7
S1131DF081E008958A3048F4633048F4962F682FC0
S1131E007894892F0E94520A089581E0089581E010
S1131E100895833080F4813039F018F0823041F035
S1131E200CC062BF80E008957DBD6CBD80E0089564
S1131E3064BD80E0089581E0089581E008958330D1
S1131E4038F5813079F018F08230B9F023C083B7C7
S1131E508E7F83BF83B78D7F83BF83B78B7F83BF21
S1131E6080E008958EB58E7F8EBD8EB58D7F8EBD3C
S1131E708EB58B7F8EBD80E0089585B58B7F85BD43
S1131E8085B58D7F85BD85B58E7F85BD80E0089540
S1131E9081E0089581E008950E942F1008F481E004
S1131EA008950E94650F0C946A100E94631058F004
S1131EB00E945C1040F029F45F3F29F00C94531009
S1131EC051110C949E100C9459100E947B1068F3CD
S1131ED09923B1F3552391F3951B550BBB27AA27DF
S1131EE062177307840738F09F5F5F4F220F331F19
S1131EF0441FAA1FA9F335D00E2E3AF0E0E832D0E1
S1131F0091505040E695001CCAF72BD0FE2F29D0E3
S1131F10660F771F881FBB1F261737074807AB07B5
S1131F20B0E809F0BB0B802DBF01FF2793585F4F2A
S1131F303AF09E3F510578F00C9453100C949E1087
S1131F405F3FE4F3983ED4F3869577956795B7950C
S1131F50F7959F5FC9F7880F911D9695879597F917
S1131F600895E1E0660F771F881FBB1F6217730790
S1131F708407BA0720F0621B730B840BBA0BEE1FA5
S1131F8088F7E09508950E94831088F09F5798F091
S1131F90B92F9927B751B0F0E1F0660F771F881F6A
S1131FA0991F1AF0BA95C9F714C0B13091F00E9484
S1131FB09D10B1E008950C949D10672F782F882709
S1131FC0B85F39F0B93FCCF3869577956795B395AB
S1131FD0D9F73EF490958095709561957F4F8F4F1A
S1131FE09F4F0895E89409C097FB3EF4909580951F
S1131FF0709561957F4F8F4F9F4F9923A9F0F92FCB
S113200096E9BB279395F695879577956795B79548
S1132010F111F8CFFAF4BB0F11F460FF1BC06F5F2E
S11320207F4F8F4F9F4F16C0882311F096E911C040
S1132030772321F09EE8872F762F05C0662371F061
S113204096E8862F70E060E02AF09A95660F771F75
S1132050881FDAF7880F9695879597F90895990F51
S11320600008550FAA0BE0E8FEEF16161706E8075E
S1132070F907C0F012161306E407F50798F0621B7F
S1132080730B840B950B39F40A2661F0232B242B54
S1132090252B21F408950A2609F4A140A6958FEF73
S11320A0811D811D089597F99F6780E870E060E0C5
S11320B008959FEF80EC089500240A9416161706DD
S11320C018060906089500240A9412161306140625
S11320D005060895092E0394000C11F4882352F088
S11320E0BB0F40F4BF2B11F460FF04C06F5F7F4F40
S11320F08F4F9F4F089557FD9058440F551F59F027
S11321005F3F71F04795880F97FB991F61F09F3FE0
S113211079F087950895121613061406551FF2CF09
S11321204695F1DF08C0161617061806991FF1CF59
S113213086957105610508940895E894BB27662780
S11321407727CB0197F908950E94B7100C946A1071
S11321500E945C1038F00E94631020F0952311F067
S11321600C9453100C94591011240C949E100E943A
S11321707B1070F3959FC1F3950F50E0551F629F3C
S1132180F001729FBB27F00DB11D639FAA27F00DCC
S1132190B11DAA1F649F6627B00DA11D661F829FF3
S11321A02227B00DA11D621F739FB00DA11D621FD8
S11321B0839FA00D611D221F749F3327A00D611DF5
S11321C0231F849F600D211D822F762F6A2F1124D7
S11321D09F5750409AF0F1F088234AF0EE0FFF1F0A
S11321E0BB1F661F771F881F91505040A9F79E3F61
S11321F0510580F00C9453100C949E105F3FE4F34F
S1132200983ED4F3869577956795B795F795E795B6
S11322109F5FC1F7FE2B880F911D9695879597F9BF
S11322200895EE0FFF1F0590F491E02D0994F894A2
S1052230FFCFDA
S11322320000A04101040E0E0E1F00040057656C3D
S1132242636F6D650064656661756C742054656DB9
S1132252702069730053657420496E697469616CF6
S11322622054656D70004D696E3D3138004D6178C2
S11322723D33350043757272656E742054656D701A
S1132282203D200054656D702076616C756520696F
S113229273007265736574746C656420746F2032A4
S11322A23000746865206F7065726174696F6E20A6
S11322B26973006E6F7420616C6C6F7765640031B2
S10F22C232333435363738392A302300E3
S9030000FC
